:100000000C9434000C9453000C9451000C94510047
:100010000C9451000C9451000C9451000C9451001C
:100020000C9451000C9451000C9451000C946A00F3
:100030000C9451000C9451000C9451000C945100FC
:100040000C9451000C9451000C9451000C945100EC
:100050000C9451000C9451000C9451000C945100DC
:100060000C9451000C94510011241FBECFEFD8E026
:10007000DEBFCDBF11E0A0E0B1E0E6EBF1E002C0F1
:1000800005900D92A231B107D9F721E0A2E1B1E0CC
:1000900001C01D92A531B207E1F70E9492000C94B5
:1000A000D9000C9400001F920F920FB60F921124EA
:1000B0008F939F9395B188E0892785B988EE93E067
:1000C00001970097E9F79F918F910F900FBE0F90C6
:1000D0001F9018951F920F920FB60F9211248F93B5
:1000E0009F9395B180E1892785B99F918F910F905A
:1000F0000FBE0F901F901895E1E1F1E0A8E0B1E08C
:1001000029E031E09291981307C095B1987F95B995
:1001100045B19C91942B95B91197E217F30791F78C
:1001200080E0089587B1807F87B988B18F6088B9F2
:1001300084B18F6184B915B852985A9AE9E6F0E013
:10014000808182608083E89AE1E8F0E080818D60C0
:100150008083EFE6F0E080818260808388EB9BE023
:100160009093890080938800789486B187708093FB
:10017000140190910001891317C020911201309150
:1001800013012F5F3F4F30931301209312012091F1
:10019000120130911301293C310534F00E947C009A
:1001A00010921301109212018091140180930001AA
:0601B000DCCFF894FFCF44
:1001B6000707060504030201000001020304050601
:0201C600070030
:00000001FF
