:100000000C9485000C94B7010C94A2000C94A200EF
:100010000C94A2000C94A2000C94A2000C94A200D8
:100020000C94A2000C94A2000C94A2000C94DC018D
:100030000C94A2000C94A2000C94A2000C94A200B8
:100040000C94A2000C94A2000C94A2000C94A200A8
:100050000C94A2000C94A2000C94A2000C94A20098
:100060000C94A8030C94A200C203140414041404F6
:100070001404140414041404C20314041404140413
:100080001404140414041404C40314041404140401
:1000900014041404140414041404140414041404A0
:1000A0001404140414041404C403140414041404E1
:1000B0001404140414041404140414041404140480
:1000C0001404140414041404100414041404140474
:1000D0001404140414041404ED0314041404140488
:1000E0001404140414041404140414041404140450
:1000F0001404140414041404E10314041404140474
:100100001404140414041404FF0311241FBECFEFBD
:10011000D8E0DEBFCDBF11E0A0E0B1E0E0E6F8E05E
:1001200002C005900D92AC38B107D9F721E0ACE8D8
:10013000B1E001C01D92AF3AB207E1F70E94D702C9
:100140000C942E040C940000CF93DF9300D01F92E8
:10015000CDB7DEB728E7298320E42A83FC0180811C
:100160008B8363E0CE0101960E9484030F900F9071
:100170000F90DF91CF910895CF93DF9300D01F921E
:10018000CDB7DEB798E799831A828B8363E0CE01FF
:1001900001960E9484030F900F900F90DF91CF91F2
:1001A0000895CF93DF93CDB7DEB72B970FB6F894B2
:1001B000DEBF0FBECDBF0E947A038FE99FE001979B
:1001C000F1F700C0000088E789831A8298E39B83D7
:1001D00099E39C8394E19D838E838EE58F838DE6E6
:1001E00088878CE0898781E08A8787E08B8769E050
:1001F000CE0101960E9484032B960FB6F894DEBFC1
:100200000FBECDBFDF91CF91089581E00E94BC0069
:1002100008950F931F93CF93DF930E940501CCE4C1
:10022000D1E001E611E0CE010E94A4002196C017A2
:10023000D107C9F7DF91CF911F910F9108950F93C7
:100240001F93CF93DF930E940501CCE1D1E000E33F
:1002500011E0CE010E94A4002196C017D107C9F772
:10026000DF91CF911F910F910895019724E1289F6D
:10027000F001299FF00D11246E0F7F1FFB01E05A42
:10028000FE4F80810E94BC0008950F931F93CF936F
:10029000DF930E94050165E070E081E090E00E943C
:1002A0003501CDE3D1E00CE411E0CE010E94A400C1
:1002B0002196C017D107C9F7DF91CF911F910F91F8
:1002C00008950F931F93CF93DF930E94050165E07C
:1002D00070E081E090E00E943501C0E3D1E00DE3E1
:1002E00011E0CE010E94A4002196C017D107C9F7E2
:1002F000DF91CF911F910F910895CF93DF9300D09D
:1003000000D000D0CDB7DEB79A8389837C836B831E
:100310005E834D83FE01319680E090E041E050E045
:1003200021913191232B61F065B19A01082E02C011
:10033000220F331F0A94E2F72095262325B90AC01D
:1003400065B19A01082E02C0220F331F0A94E2F70A
:10035000262B25B901968330910511F726960FB605
:10036000F894DEBF0FBECDBFDF91CF9108951F92ED
:100370000F920FB60F9211248F939F93EF93FF93D9
:10038000E8981092850010928400B19A81E08093E1
:10039000920188EE93E001970097E9F7EFE6F0E02D
:1003A000808182608083FF91EF919F918F910F9068
:1003B0000FBE0F901F9018951F920F920FB60F92BD
:1003C00011248F93EF93FF93E89AEFE6F0E080819A
:1003D0008D7F8083109292011092920110928F0172
:1003E00010928E01109291011092900181E0809301
:1003F0000001FF91EF918F910F900FBE0F901F9012
:100400001895EBE1F1E0A2E1B1E024E131E040E058
:100410009291981301C04C911197E217F307C1F71D
:10042000842F0895CF93C6B1C770C0939501809172
:100430000101C8131AC020919301309194012F5FDC
:100440003F4F3093940120939301293C31057CF078
:100450008C2F0E940102109294011092930181113D
:1004600007C091E090938D0103C080E001C080E05F
:10047000C0930101CF910895E0919001F091910115
:10048000EE5FFE4F908198130AC080918E0190918B
:100490008F01019690938F0180938E0108951092A1
:1004A0000001089541E050E061E070E081E090E0FB
:1004B0000E947D011092920110928F0110928E0184
:1004C000109291011092900181E080930001E09AD6
:1004D000E89A1092850010928400B19AEFE6F0E05D
:1004E00080818D7F8083089580918E0190918F010E
:1004F0000A97C4F040E050E060E070E081E090E0F6
:100500000E947D010E9445015D9A2FEF82E597E0F0
:10051000215080409040E1F700C000005D980E94AB
:100520005202089540E050E061E070E080E090E029
:100530000E947D010E9461012FEF82E597E021502A
:1005400080409040E1F700C000000E9452020895F0
:10055000CF93DF93EC018091900190919101892BD1
:1005600021F4CE010E94A4001FC0609190017091FF
:100570009101660F771F6150710982E090E00E943F
:1005800035018AE891E00E94A40060919001709189
:100590009101660F771F6F5F7F4F82E090E00E94AE
:1005A0003501CE010E94A400DF91CF910895CF9331
:1005B000DF931F92CDB7DEB787B1807F87B988B14F
:1005C0008F6088B98AB180638AB95C9A84B1876088
:1005D00084B941E050E061E070E081E090E00E9489
:1005E0007D0152985A9AE9E6F0E08081826080832A
:1005F000E89AE1E8F0E080818D60808380E395E710
:10060000909389008093880078940E94D10011E033
:100610000E9409018FE295E70197F1F700C0000001
:1006200064C041E050E060E070E080E090E00E9453
:100630007D010E941F0161E070E082E090E00E9475
:10064000350180919201882309F44FC019820E94DC
:100650001202898320918C01912F821301C090E0B6
:100660009923D1F1912F811101C090E09923A1F13B
:1006700080938C0110928D01CE0101960E94A802F8
:10068000809190019091910130910001212F892B4F
:1006900009F020E0211102C0332369F089810E9412
:1006A0003C0280919001909191010196909391016B
:1006B0008093900109C080919001909191010196E1
:1006C000909391018093900180919001909191017C
:1006D0000A9714F00E94740280918D01811110928A
:1006E0008C01809192018111B1CF80919201811191
:1006F00098CF8ECF82E08093B8008FEF8093BB00BD
:1007000084E08093BC000895ECEBF0E0208120FDB4
:10071000FDCF60939801FC0120812093990120FD79
:100720000EC0623060F03196AAE9B1E002966250E4
:10073000860F911D21912D93E817F907D9F7109293
:10074000970188EF8093890185EA8093BC00089522
:100750001F920F920FB60F9211242F933F938F93F6
:100760009F93AF93BF93EF93FF938091B90090E075
:10077000FC013897E135F10508F056C0EC5CFF4FFD
:100780000C94280410929601E091960180919801B2
:10079000E81770F481E08E0F80939601F0E0E75641
:1007A000FE4F80818093BB0085E88093BC0043C0EE
:1007B0008091970181608093970184E98093BC00C8
:1007C0003AC0E091960181E08E0F8093960180916E
:1007D000BB00F0E0E756FE4F80832091960130E0A9
:1007E0008091980190E001972817390724F485EC4F
:1007F0008093BC0020C085E88093BC001CC0809121
:10080000BB00E0919601F0E0E756FE4F80838091B7
:10081000970181608093970184E98093BC000BC0AD
:1008200085EA8093BC0007C08091B900809389015C
:1008300084E08093BC00FF91EF91BF91AF919F91B5
:100840008F913F912F910F900FBE0F901F90189591
:10085000EE0FFF1F0590F491E02D0994F894FFCF5F
:100860000107555544447F7E7F7E42414241557E7B
:10087000447F00000102030405060700456E74650D
:100880007220436F646520274B4F4E414D4927002E
:1008900054727920416761696E203A28004F706573
:1008A0006E20536573616D6521212100507265735F
:1008B0007320535441525420746F20426567696E0F
:1008C00000808182838485868788898A8B8C8D8E3F
:1008D0008F90919293C0C1C2C3C4C5C6C7C8C9CACC
:0C08E000CBCCCDCECFD0D1D2D3F82A00A3
:00000001FF
