:100000000C9434000C9451000C9451000C94510049
:100010000C9451000C9451000C9451000C9451001C
:100020000C9451000C9451000C9451000C9451000C
:100030000C9451000C9451000C9451000C945100FC
:100040000C9451000C9451000C9451000C945100EC
:100050000C9451000C9451000C9451000C945100DC
:100060000C9451000C94510011241FBECFEFD8E026
:10007000DEBFCDBF11E0A0E0B1E0E8E1F1E002C0F9
:1000800005900D92A231B107D9F721E0A2E1B1E0CC
:1000900001C01D92A531B207E1F70E9464000C94E3
:1000A0008A000C940000E1E1F1E0A8E0B1E029E071
:1000B00031E09291981302C09C9195B91197E21783
:1000C000F307B9F780E0089588E384B983B18770B6
:1000D0008093140190910001891317C0209112019F
:1000E000309113012F5F3F4F309313012093120182
:1000F0002091120130911301293C310534F00E9406
:1001000053001092130110921201809114018093F8
:080110000001DCCFF894FFCFE1
:1001180007383028201810080000010203040506DB
:020128000700CE
:00000001FF
