S00E0000746573745F322E73726563C5
S11300000C9434000C9453000C9451000C94510043
S11300100C9451000C9451000C9451000C94510018
S11300200C9451000C9451000C9451000C947A00DF
S11300300C9451000C9451000C9451000C945100F8
S11300400C9451000C9451000C9451000C945100E8
S11300500C9451000C9451000C9451000C945100D8
S11300600C9451000C94510011241FBECFEFD8E022
S1130070DEBFCDBF11E0A0E0B1E0E0E2F3E002C0FA
S113008005900D92A831B107D9F721E0A8E1B1E0BC
S113009001C01D92A032B207E1F70E9438010C940E
S11300A08E010C9400001F920F920FB60F92112430
S11300B08F939F93EF93FF932B9A2C98E898109229
S11300C0850010928400B19A81E080931C0188EE2F
S11300D093E001970097E9F7EFE6F0E08081826012
S11300E08083FF91EF919F918F910F900FBE0F909E
S11300F01F9018951F920F920FB60F9211248F9391
S1130100EF93FF932C9A2B98E89AEFE6F0E0808126
S11301108D7F808310921C0110921C011092190192
S11301201092180110921B0110921A0181E0809321
S11301300001FF91EF918F910F900FBE0F901F90D0
S11301401895E8E1F1E0AFE0B1E020E131E040E012
S11301509291981308C095B1987F95B945B19C9137
S1130160942B95B94C911197E217F30789F7842FD3
S1130170089586B1877080931F01909101018913BE
S113018014C020911D0130911E012F5F3F4F309309
S11301901E0120931D01293C31054CF00E94A10051
S11301A010921E0110921D0103C080E001C080E086
S11301B090911F01909301010895E0911A01F0912B
S11301C01B01EE5FFE4F908198130AC080911801C5
S11301D09091190101969093190180931801089543
S11301E010920001089510921C01109219011092AE
S11301F0180110921B0110921A0181E080930001F2
S1130200E89A1092850010928400B19AEFE6F0E02B
S113021080818D7F808308958091180190911901C8
S1130220069784F02E9A2FEF82E597E021508040C4
S11302309040E1F700C000002E9815B82C9A0E9457
S1130240F300089580911A0190911B0106977CF0A8
S11302502D9A2FEF82E597E0215080409040E1F7FE
S113026000C000002D9815B82C9A0E94F300089540
S113027087B1807F87B988B18F6088B984B18F676F
S113028084B915B852985A9AE9E6F0E08081826000
S11302908083E89AE1E8F0E080818D60808380E3E8
S11302A095E7909389008093880078942C9AC1E014
S11302B0D0E02FC00E94B900882359F1EFE3FCE994
S11302C03197F1F700C0000020911A0130911B0111
S11302D0409100019C2F232B09F09D2F911102C006
S11302E0442361F00E94DD0080911A0190911B016A
S11302F0019690931B0180931A0109C080911A0101
S113030090911B01019690931B0180931A010E9406
S11303100C0180911C018111CDCFFBCFF894FFCF4C
S11303200107040203010506070605040302010090
S10B03300001020304050607A5
S9030000FC
