:100000000C948A000C94A9000C94A9000C94A900EB
:100010000C94A9000C949D060C94A9000C94A900C2
:100020000C94A9000C94A9000C94A9000C94A900AC
:100030000C94A9000C94A9000C94A9000C94A9009C
:100040000C94A9000C94A9000C94A9000C94A9008C
:100050000C94A9000C94A9000C94A9000C94A9007C
:100060000C94A9000C94A9000C94A9000C94A9006C
:100070000C94A9000C94A9000C94A9000C94A9005C
:100080000C94A9000C94A9000C94A9000C94A9004C
:100090000C94A9000C94A9000C94A9000C94A9003C
:1000A0000C94A9000C94A9000C94A9000C94A9002C
:1000B0000C94A9000C94A9000C94A9000C94A9001C
:1000C0000C94A9000C94A9000C94A9000C94A9000C
:1000D0000C94A9000C94A9000C94A9000C94A900FC
:1000E0000C94A900790583058D059705A105AB053D
:1000F000B505BF05C905D305DD05E705F105FB0518
:1001000005060F06190623062D06370641064B067F
:1001100055065F0611241FBECFEFD1E2DEBFCDBF73
:1001200000E00CBF12E0A0E0B2E0E4E5FEE002C0B7
:1001300005900D92A030B107D9F712E0A0E0B2E02F
:1001400001C01D92A230B107E1F70E9408070C948C
:1001500029070C940000DF93CF930F920F92CDB735
:10016000DEB789836A838981882F90E08330910587
:1001700009F4DCC0843091055CF48130910509F408
:1001800057C0823091050CF092C0009791F008C2E0
:100190008530910509F448C1853091050CF405C1FD
:1001A0008630910509F47FC18730910509F4BAC101
:1001B000F7C18A81882F90E081309105B9F08230B3
:1001C00091051CF4009741F031C082309105C9F0CF
:1001D0008330910509F12AC089E690E029E630E0F4
:1001E000F90120812C7FFC01208321C089E690E069
:1001F00029E630E0F90120812C7F2160FC01208379
:1002000016C089E690E029E630E0F90120812C7FD4
:100210002260FC0120830BC089E690E029E630E0F3
:10022000F90120812360FC01208301C00000B8C1D6
:100230008A81882F90E081309105B9F08230910554
:100240001CF4009741F031C082309105C9F0833031
:10025000910509F12AC089E690E029E630E0F9012C
:100260002081237FFC01208321C089E690E029E6DC
:1002700030E0F9012081237F2460FC01208316C037
:1002800089E690E029E630E0F9012081237F2860AB
:10029000FC0120830BC089E690E029E630E0F901FB
:1002A00020812C60FC01208301C0000079C18A817B
:1002B000882F90E081309105B9F0823091051CF4CF
:1002C000009741F031C082309105C9F0833091052B
:1002D00009F12AC089E690E029E630E0F9012081A1
:1002E0002F7CFC01208321C089E690E029E630E0E4
:1002F000F90120812F7C2061FC01208316C089E652
:1003000090E029E630E0F90120812F7C2062FC0199
:1003100020830BC089E690E029E630E0F9012081D6
:100320002063FC01208301C000003AC18A81882F2C
:1003300090E081309105B9F0823091051CF400976E
:1003400041F031C082309105C9F08330910509F147
:100350002AC089E690E029E630E0F90120812F7378
:10036000FC01208321C089E690E029E630E0F90114
:1003700020812F732064FC01208316C089E690E061
:1003800029E630E0F90120812F732068FC012083E9
:100390000BC089E690E029E630E0F9012081206C6D
:1003A000FC01208301C00000FBC08A81882F90E0FF
:1003B00081309105B9F0823091051CF4009741F02D
:1003C00031C082309105C9F08330910509F12AC00E
:1003D0008AE690E02AE630E0F90120812C7FFC01DA
:1003E000208321C08AE690E02AE630E0F9012081EE
:1003F0002C7F2160FC01208316C08AE690E02AE66B
:1004000030E0F90120812C7F2260FC0120830BC0A9
:100410008AE690E02AE630E0F90120812360FC01C1
:10042000208301C00000BCC08A81882F90E0813009
:100430009105B9F0823091051CF4009741F031C06C
:1004400082309105C9F08330910509F12AC08AE60E
:1004500090E02AE630E0F9012081237FFC0120832F
:1004600021C08AE690E02AE630E0F9012081237F6E
:100470002460FC01208316C08AE690E02AE630E082
:10048000F9012081237F2860FC0120830BC08AE6CC
:1004900090E02AE630E0F90120812C60FC01208305
:1004A00001C000007DC08A81882F90E081309105D5
:1004B000B9F0823091051CF4009741F031C08230D0
:1004C0009105C9F08330910509F12AC08AE690E0D0
:1004D0002AE630E0F90120812F7CFC01208321C035
:1004E0008AE690E02AE630E0F90120812F7C206145
:1004F000FC01208316C08AE690E02AE630E0F9018C
:1005000020812F7C2062FC0120830BC08AE690E0D2
:100510002AE630E0F90120812063FC01208301C03C
:1005200000003EC08A81882F90E081309105B9F0AB
:10053000823091051CF4009741F031C08230910562
:10054000C9F08330910509F12AC08AE690E02AE6D5
:1005500030E0F90120812F73FC01208320C08AE65E
:1005600090E02AE630E0F90120812F732064FC013D
:10057000208315C08AE690E02AE630E0F901208168
:100580002F732068FC0120830AC08AE690E02AE6E7
:1005900030E0F9012081206CFC0120830000000084
:1005A0000F900F90CF91DF910895DF93CF930F922B
:1005B000CDB7DEB789838981882F90E0833091059C
:1005C000D1F1843091054CF48130910501F18230F4
:1005D00091053CF5009789F060C08530910509F4DC
:1005E0003EC0853091058CF18630910509F441C0FB
:1005F0008730910509F447C050C08DE390E02DE3AA
:1006000030E0F90120812160FC01208346C08DE3A8
:1006100090E02DE330E0F90120812260FC0120838D
:100620003CC08DE390E02DE330E0F90120812460AF
:10063000FC01208332C08DE390E02DE330E0F9012E
:1006400020812860FC01208328C08DE390E02DE309
:1006500030E0F90120812061FC0120831EC08DE380
:1006600090E02DE330E0F90120812062FC0120833D
:1006700014C08DE390E02DE330E0F9012081206487
:10068000FC0120830AC08DE390E02DE330E0F90106
:1006900020812068FC01208300000F90CF91DF9122
:1006A0000895DF93CF930F92CDB7DEB78983898109
:1006B000883008F07CC088E690E028E630E0F90158
:1006C00020812160FC0120838981882F90E0833084
:1006D0009105D1F1843091054CF48130910501F1FF
:1006E000823091053CF5009789F063C18530910512
:1006F00009F43EC0853091058CF18630910509F4EE
:1007000041C08730910509F447C053C18BE690E0A2
:100710002BE630E0F90120812160FC01208349C1F2
:100720008BE690E02BE630E0F90120812260FC01AD
:1007300020833FC18BE690E02BE630E0F901208179
:100740002460FC01208335C18BE690E02BE630E08D
:10075000F90120812860FC0120832BC18BE690E009
:100760002BE630E0F90120812061FC01208321C1CA
:100770008BE690E02BE630E0F90120812062FC015D
:10078000208317C18BE690E02BE630E0F901208151
:100790002064FC0120830DC18BE690E02BE630E065
:1007A000F90120812068FC012083000002C18981B9
:1007B000883008F482C08981803108F07EC088E6E4
:1007C00090E028E630E0F90120812260FC012083DE
:1007D0008981882F90E08B309105D9F18C3091057B
:1007E00054F48930910509F18A30910544F5883037
:1007F000910589F060C08D30910509F43EC08D30BF
:1008000091058CF18E30910509F441C08F3091052E
:1008100009F447C050C08CE690E02CE630E0F901C6
:1008200020812160FC01208347C08CE690E02CE60B
:1008300030E0F90120812260FC0120833DC08CE67C
:1008400090E02CE630E0F90120812460FC01208357
:1008500033C08CE690E02CE630E0F901208128607E
:10086000FC01208329C08CE690E02CE630E0F90101
:1008700020812061FC0120831FC08CE690E02CE6E3
:1008800030E0F90120812062FC01208315C08CE654
:1008900090E02CE630E0F90120812064FC01208307
:1008A0000BC08CE690E02CE630E0F9012081206856
:1008B000FC01208301C000007CC088E690E028E6AF
:1008C00030E0F90120812460FC0120838981882F98
:1008D00090E083319105D9F18431910554F481314F
:1008E000910509F18231910544F58031910589F036
:1008F00060C08531910509F43EC0853191058CF1C8
:100900008631910509F441C08731910509F447C04A
:1009100050C08DE690E02DE630E0F90120812160A5
:10092000FC01208346C08DE690E02DE630E0F90121
:1009300020812260FC0120833CC08DE690E02DE602
:1009400030E0F90120812460FC01208332C08DE673
:1009500090E02DE630E0F90120812860FC01208341
:1009600028C08DE690E02DE630E0F901208120617D
:10097000FC0120831EC08DE690E02DE630E0F901F9
:1009800020812062FC01208314C08DE690E02DE6DA
:1009900030E0F90120812064FC0120830AC08DE64B
:1009A00090E02DE630E0F90120812068FC012083F1
:1009B00000000F90CF91DF910895DF93CF930F92B6
:1009C000CDB7DEB789838981882F90E08330910588
:1009D000D1F1843091054CF48130910501F18230E0
:1009E00091053CF5009789F060C08530910509F4C8
:1009F0003EC0853091058CF18630910509F441C0E7
:100A00008730910509F447C050C08DE390E02DE395
:100A100030E0F90120812E7FFC01208346C08DE368
:100A200090E02DE330E0F90120812D7FFC0120834F
:100A30003CC08DE390E02DE330E0F90120812B7F75
:100A4000FC01208332C08DE390E02DE330E0F9011A
:100A50002081277FFC01208328C08DE390E02DE3D7
:100A600030E0F90120812F7EFC0120831EC08DE340
:100A700090E02DE330E0F90120812F7DFC012083FF
:100A800014C08DE390E02DE330E0F90120812F7B4D
:100A9000FC0120830AC08DE390E02DE330E0F901F2
:100AA00020812F77FC01208300000F90CF91DF91F0
:100AB0000895DF93CF930F92CDB7DEB789838981F5
:100AC000882F90E0AA2797FDA095BA2F40E050E02C
:100AD00027E130E0841B950B2817390708F4F9C08B
:100AE0008E589F4FFC01EE0FFF1F0590F491E02DF3
:100AF00019948BE690E02BE630E0F90120812E7FFF
:100B0000FC012083E7C08BE690E02BE630E0F901A2
:100B100020812D7FFC012083DDC08BE690E02BE659
:100B200030E0F90120812B7FFC012083D3C08BE6CC
:100B300090E02BE630E0F9012081277FFC01208343
:100B4000C9C08BE690E02BE630E0F90120812F7ED2
:100B5000FC012083BFC08BE690E02BE630E0F9017A
:100B600020812F7DFC012083B5C08BE690E02BE631
:100B700030E0F90120812F7BFC012083ABC08BE6A4
:100B800090E02BE630E0F90120812F77FC012083F3
:100B9000A1C08CE690E02CE630E0F90120812E7FA8
:100BA000FC01208397C08CE690E02CE630E0F90150
:100BB00020812D7FFC0120838DC08CE690E02CE607
:100BC00030E0F90120812B7FFC01208383C08CE67B
:100BD00090E02CE630E0F9012081277FFC012083A2
:100BE00079C08CE690E02CE630E0F90120812F7E80
:100BF000FC0120836FC08CE690E02CE630E0F90128
:100C000020812F7DFC01208365C08CE690E02CE6DE
:100C100030E0F90120812F7BFC0120835BC08CE652
:100C200090E02CE630E0F90120812F77FC01208351
:100C300051C08DE690E02DE630E0F90120812E7F55
:100C4000FC01208347C08DE690E02DE630E0F901FD
:100C500020812D7FFC0120833DC08DE690E02DE6B4
:100C600030E0F90120812B7FFC01208333C08DE629
:100C700090E02DE630E0F9012081277FFC01208300
:100C800029C08DE690E02DE630E0F90120812F7E2D
:100C9000FC0120831FC08DE690E02DE630E0F901D5
:100CA00020812F7DFC01208315C08DE690E02DE68C
:100CB00030E0F90120812F7BFC0120830BC08DE601
:100CC00090E02DE630E0F90120812F77FC012083B0
:100CD00001C000008BE690E0FC018081882351F484
:100CE00088E690E028E630E0F90120812E7FFC01C3
:100CF00020831FC08CE690E0FC018081882351F4A2
:100D000088E690E028E630E0F90120812D7FFC01A3
:100D100020830FC08DE690E0FC018081882349F498
:100D200088E690E028E630E0F90120812B7FFC0185
:100D300020830F90CF91DF9108951F920F920FB6ED
:100D40000F9200905B000F9211242F933F938F938B
:100D50009F93EF93FF93DF93CF93CDB7DEB782E2FC
:100D600090E022E230E0F90120812E7FFC01208317
:100D7000109201021092000209C08091000290912D
:100D8000010201969093010280930002809100027B
:100D900090910102F7E280319F077CF382E290E0BC
:100DA00022E230E0F90120812160FC012083CF9113
:100DB000DF91FF91EF919F918F913F912F910F9034
:100DC00000925B000F900FBE0F901F901895DF935D
:100DD000CF93CDB7DEB78DE290E02DE230E0F901A0
:100DE00020812061FC01208380E990E020E1FC016A
:100DF000208388E990E02FEF3FE7FC0131832083D7
:100E000081E990E02BE0FC012083CF91DF910895F0
:100E1000DF93CF93CDB7DEB781E290E021E230E0FF
:100E2000F90120812160FC01208382E290E022E22E
:100E300030E0F90120812160FC01208384E063E03F
:100E40000E94AB0084E00E94D50278940E94E706DD
:040E5000FFCFFFCF02
:00000001FF
